:100000000C942A000C9434000C9434000C943400AA
:100010000C9434000C9434000C9434000C94340090
:100020000C9434000C9434000C9434000C94340080
:100030000C9434000C9434000C9434000C94340070
:100040000C9434000C9434000C9434000C94340060
:100050000C94340011241FBECFE5D8E0DEBFCDBF25
:100060000E9436000C94C1000C9400008FE081BB0C
:100070001ABA8FEF84BB8FEF9FEFF8E0ECE074E0EB
:1000800066E052E043E021E039E00FEFFF24FA940C
:10009000B1E0A0E0CA993CC08F3F1FEF9107D1F7B4
:1000A00025BB8CE890E032BBC8E3D1E02197F1F7A3
:1000B000000022BBC8E3D1E02197F1F7000042BB6A
:1000C000C8E3D1E02197F1F7000052BBC8E3D1E0CB
:1000D0002197F1F7000062BBC8E3D1E02197F1F767
:1000E000000072BBC8E3D1E02197F1F70000E2BB4A
:1000F000C8E3D1E02197F1F70000F2BBC8E3D1E0FB
:100100002197F1F70000019771F68B2F9A2FC2CF3C
:100110008130910509F0BECFCA9BBCCF15BA8CE8DF
:1001200090E0F2BBC8E3D1E02197F1F70000E2BB19
:10013000C8E3D1E02197F1F7000072BBC8E3D1E03A
:100140002197F1F7000062BBC8E3D1E02197F1F7F6
:10015000000052BBC8E3D1E02197F1F7000042BB99
:10016000C8E3D1E02197F1F7000022BBC8E3D1E05A
:100170002197F1F7000032BB019799F6802F9F2D50
:0601800089CFF894FFCFC7
:00000001FF
